:020000040800F2
:1000000058040020450100085D2400085F24000812
:1000100063240008672400086B2400080000000027
:100020000000000000000000000000006F24000835
:1000300071240008000000007324000875240008E3
:100040005F0100085F0100085F0100085F01000810
:100050005F0100085F0100085F0100085F01000800
:100060005F0100085F0100085F0100085F010008F0
:100070005F0100085F0100085F0100085F010008E0
:100080005F0100085F0100085F0100085F010008D0
:100090005F0100085F0100085F0100085F010008C0
:1000A0005F0100085F0100085F0100085F010008B0
:1000B0005F0100085F0100085F0100085F010008A0
:1000C0005F0100085F0100085F0100085F01000890
:1000D0005F0100083B2500085F0100085F01000880
:1000E0005F0100085F0100085F0100085F01000870
:1000F0005F0100085F0100085F0100085F01000860
:100100005F0100085F0100085F0100085F0100084F
:100110005F0100085F0100085F0100085F0100083F
:100120005F0100085F0100085F0100085F0100082F
:10013000DFF80CD003F038F800480047011F000832
:10014000580400200648804706480047FEE7FEE7BF
:10015000FEE7FEE7FEE7FEE7FEE7FEE7FEE7FEE777
:10016000310200083101000800210020674A1268AE
:1001700042F48032654B1A6000BF644A126802F490
:100180000030491C10B9B1F5A06FF6D15F4A126872
:1001900012F4003F01D0012000E00020012842D1EC
:1001A0005B4A126842F01002594B1A601A461268F4
:1001B00022F003021A601A46126842F002021A6024
:1001C000524A5268514B5A601A4652685A601A464F
:1001D000526842F480625A601A46526822F47C12D5
:1001E0005A601A46526842F4E8125A601A46126877
:1001F00042F080721A6000BF444A126812F0007F19
:10020000FAD0424A526822F00302404B5A601A4622
:10021000526842F002025A6000BF3C4A526802F043
:100220000C02082AF9D1704710B5FFF79DFF10BDE9
:1002300010B53648006840F00100344908600846AF
:1002400040683449084031494860084600683249EE
:1002500008402E4908600846006820F480200860A5
:100260000846406820F4FE0048604FF41F00886094
:10027000FFF7DAFF4FF000602849086010BD10B5A5
:10028000002100200022214B5B6803F00C0121B10A
:10029000042906D0082928D107E0214B214C2360EE
:1002A00027E01F4B1F4C236023E0184B5B6803F4CF
:1002B0007010164B5B6803F48032022303EB90400E
:1002C00022B9194B4343174C23600DE00F4B5B6879
:1002D00013F4003F04D0144B4343124C236003E05B
:1002E0000F4B43430F4C236003E00D4B0D4C236039
:1002F00000BF00BF054B5B68C3F303130B4CE15C0D
:10030000084B1B68CB40074C236010BD0010024017
:10031000002002400000FFF8FFFFF6FE08ED00E0BD
:1003200000127A000000002000093D0004000020B7
:1003300031490143314A1160704770B500210023F3
:100340000F22C4780CB32D4C246804F4E064C4F587
:10035000E064210AC1F10403CA40447804FA03F1BD
:100360008478144021430901254C0678A15504786E
:1003700004F01F050124AC4005786D114FF0E02614
:1003800006EB8505C5F8004109E0047804F01F0577
:100390000124AC401B4D0678761145F8264070BD0F
:1003A000194A0A400243154B1B1F1A60704739B1A6
:1003B000124A121D12680243104B1B1D1A6006E000
:1003C0000E4A121D126882430C4B1B1D1A607047A7
:1003D000042808D14FF0E021096941F004014FF0F1
:1003E000E022116107E04FF0E021096921F00401EA
:1003F0004FF0E022116170470000FA050CED00E0BB
:1004000000E400E080E100E080FFFF1FDC480068BE
:1004100040F00100DA49086008464068D9490840C0
:10042000D749486008460068D7490840D449086061
:100430000846006820F4802008600846406820F4E0
:10044000FE0048604FF41F0088607047CC4909687F
:1004500021F48031CA4A11601146096821F48021D3
:100460001160B0F5803F03D0B0F5802F0ED106E0CB
:10047000C349096841F48031C14A116007E0C049AD
:10048000096841F4A021BE4A116000E000BF00BF2E
:10049000704710B501460022002300204A11012AAE
:1004A00002D1B74C236806E0022A02D1B44C236A79
:1004B00001E0B34C636A01F01F02012494401C4226
:1004C00001D0012000E0002010BD70B500240025FF
:1004D000002600BF3120FFF7DCFF0646641CB4F5A0
:1004E000A06F01D0002EF5D03120FFF7D2FF08B168
:1004F000012500E00025284670BD01460020A04AE5
:10050000106820F0F80040EAC100106070479F4971
:100510000860704702460020994B586820F47C1010
:1005200042EA01031843964B5860704797490866A2
:10053000704701460020924A506820F003000843AB
:10054000506070478E48406800F00C0070470146CC
:1005500000208B4A506820F0F0000843506070473C
:1005600001460020864A506820F4E060084350604D
:10057000704701460020824A506820F4605040EAEB
:10058000C1005060704729B17D4A527A02437C4BCA
:100590005A7206E07A4A527AC343DBB21A40784B69
:1005A0005A7270477A490860704701460020744AC1
:1005B000506820F440400843506070470021754A5D
:1005C00011706F4A82F82010012802D0042808D147
:1005D00003E001216F4A117004E005216D4A11709A
:1005E00000E000BF00BF70476B4908607047644976
:1005F000096A0143624A11627047674944390860D9
:10060000704730B500210022002400235C4D6D6846
:1006100005F00C0121B1042905D0082923D105E0FA
:100620005E4D056022E05D4D05601FE0544D6D6834
:1006300005F47012524D6D6805F48034022505EB07
:1006400092421CB9564D554305600BE04C4D6D6808
:1006500015F4003F03D0524D5543056002E04F4D65
:100660005543056002E04D4D056000BF00BF444D9D
:100670006D6805F0F00109094A4D6B5C0568DD40C5
:1006800045603F4D6D6805F4E061090A454D6B5CBE
:100690004568DD4085603A4D6D6805F46051C90AD2
:1006A000404D6B5C4568DD40C560354D6D6805F4B7
:1006B0004041890B3C4D6B5CC568B5FBF3F50561AA
:1006C00030BD29B12E4A526902432D4B5A6104E0D4
:1006D0002B4A526982432A4B5A61704729B1284AF2
:1006E00092690243264B9A6104E0254A926982434B
:1006F000234B9A61704729B1214AD2690243204BAA
:10070000DA6104E01E4AD26982431D4BDA61704708
:1007100029B11B4AD2680243194BDA6004E0184A37
:10072000D2688243164BDA60704729B1144A1269C5
:100730000243134B1A6104E0114A12698243104BC1
:100740001A61704714494039086070470F49C864FE
:1007500070470B49C87170470948406A40F0807083
:1007600007494862704701460020054A92680A42DC
:1007700001D0012000E000207047014988727047D5
:10078000001002400000FFF8FFFFF6FE00004242AA
:10079000D8004242201002408004424200127A00F7
:1007A00000093D00140000202400002010B504467C
:1007B000CA48844208D101210420FFF7A9FF002183
:1007C0000420FFF7A5FF46E0C548844208D1012177
:1007D0000820FFF79DFF00210820FFF799FF3AE06E
:1007E000C048844208D101211020FFF791FF002169
:1007F0001020FFF78DFF2EE0BB48844208D1012175
:100800002020FFF785FF00212020FFF781FF22E055
:10081000B648844208D101214020FFF779FF00212A
:100820004020FFF775FF16E0B148844208D101214E
:100830008020FFF76DFF00218020FFF769FF0AE0AD
:10084000AC48844207D101218015FFF761FF0021E8
:10085000A015FFF75DFF10BD10B501210846FFF799
:1008600057FF00210120FFF753FF10BD2DE9F04194
:10087000024600250026002000230024002791F8CE
:1008800003C00CF00F0591F803C01CF0100F03D04B
:1008900091F802C04CEA0505B1F800C01CF0FF0F4A
:1008A00031D0146800202BE04FF0010C0CFA00F35B
:1008B000B1F800C00CEA03069E4220D183004FF03D
:1008C0000F0C0CFA03F7BC4305FA03FC4CEA0404D2
:1008D00091F803C0BCF1280F06D14FF0010C0CFABF
:1008E00000FCC2F814C00AE091F803C0BCF1480F44
:1008F00005D14FF0010C0CFA00FCC2F810C0401CEE
:100900000828D1D31460B1F800C0BCF1FF0F34DD6A
:10091000546800202EE000F1080C4FF0010808FA9E
:100920000CF3B1F800C00CEA03069E4221D183000B
:100930004FF00F0C0CFA03F7BC4305FA03FC4CEA2A
:10094000040491F803C0BCF1280F05D100F1080C94
:1009500008FA0CF8C2F8148091F803C0BCF1480FF3
:1009600007D100F1080C4FF0010808FA0CF8C2F8A2
:100970001080401C0828CED35460BDE8F0814FF6AB
:10098000FF710180022181700421C170704702460D
:10099000002093680B4201D0012000E00020704746
:1009A0000146886880B2704702460020D3680B4237
:1009B00001D0012000E0002070470146C86880B2E5
:1009C000704701617047416170470AB1016100E001
:1009D00041617047C16070474FF480320A438261C1
:1009E0008161826182698269704702460020424BC0
:1009F00018684FF68073184040EA021008433E4BD7
:100A0000186070473D49C8617047F0B50A46002339
:100A100000240021002500F00046B6F1004F02D16D
:100A2000354EF16901E0344E7168C0F3034583B27D
:100A300000F44016B6F5401F08D121F070612E4E2B
:100A4000766826F070662C4F7E6012E000F4801607
:100A5000B6F5801F06D1032606FA05F4A14341F03E
:100A6000706106E0460D360103FA06F6B14341F027
:100A7000706122B1460D360103FA06F6314300F0EB
:100A80000046B6F1004F02D11B4EF16101E01A4E53
:100A90007160F0BD30B500228B071C0F0F2303FAE5
:100AA00004F2154B08338C1053F824309343124C46
:100AB00008348D1044F8253023468C1053F8243028
:100AC0008C07240F00FA04F423430B4C08348D10D8
:100AD00044F8253030BD0A490860704700080140DD
:100AE000000C0140001001400014014000180140BA
:100AF000001C014000200140000001400000204295
:100B0000DC00204210B50446FC48844209D1012192
:100B10008803FFF7FDFD00214FF48040FFF7F8FD4B
:100B200032E0F748844209D101214804FFF7FDFD76
:100B300000214FF40030FFF7F8FD25E0F148844232
:100B400009D101218804FFF7F0FD00214FF4802036
:100B5000FFF7EBFD18E0EC48844209D10121C804FD
:100B6000FFF7E3FD00214FF40020FFF7DEFD0BE06F
:100B7000E648844208D101210805FFF7D6FD00218F
:100B80004FF48010FFF7D1FD10BD2DE9F04786B07E
:100B900005460E460024A24600BFA1460027B089A4
:100BA00000B100BF2F462C8A4CF6FF700440F0883D
:100BB00004432C82AC894EF6F3100440B08831898E
:100BC0000843718908430443AC81AC8A4FF6FF4067
:100BD0000440B0890443AC8201A8FFF712FDC74866
:100BE000874202D1DDF810A001E0DDF80CA0A88951
:100BF00010F4004F08D00AEBCA0000EB0A1031686D
:100C00004900B0FBF1F807E00AEBCA0000EB0A105C
:100C100031688900B0FBF1F86420B8FBF0F0040102
:100C20002009642101FB1089A88910F4004F08D025
:100C3000322000EBC900B0FBF1F000F007000443E4
:100C400008E0322000EB09106421B0FBF1F000F065
:100C50000F0004432C8106B0BDE8F0874FF4165115
:100C6000016000218180C18001810C21418100212E
:100C70008181704710B502460020108A4FF2FF03B1
:100C800018400B884C8823438C882343CC8823430B
:100C90001843108210BD0021018041808180C180F5
:100CA000704721B1828942F40052828104E0828936
:100CB0004DF6FF731A4082817047F0B50346002459
:100CC000002600250020A1F510676A3F00D100BF73
:100CD0001846C1F3421401F01F06012707FA06F572
:100CE000012C01D10C3004E0022C01D1103000E0C5
:100CF00014301AB107682F43076002E00768AF435A
:100D00000760F0BD10B51AB1838A0B43838204E0FB
:100D1000838ACC43A4B22340838210BD028A4FF65B
:100D2000F0731A400282028A0A4302827047828963
:100D30004FF2FF731A40828182890A438281704791
:100D400021B1828942F00202828104E082894FF659
:100D5000FD731A4082817047028A4FF6DF731A4092
:100D60000282028A0A430282704721B1028A42F457
:100D70008042028204E0028A4BF6FF731A4002822C
:100D80007047C1F308028280704701468888C0F32B
:100D900008007047818941F0010181817047028B11
:100DA000D2B20283028B42EA012202837047028B95
:100DB00002F47F420283028B0A430283704721B10F
:100DC000828A42F02002828204E0828A4FF6DF7338
:100DD0001A408282704721B1828A42F010028282D8
:100DE00004E0828A4FF6EF731A408282704721B185
:100DF000828A42F00802828204E0828A4FF6F77308
:100E00001A408282704721B1828942F40042828175
:100E100003E08289C2F30E028281704721B1828A87
:100E200042F40062828204E0828A4FF2FF731A4029
:100E300082827047828A4FF6FB731A408282828ACE
:100E40000A438282704721B1828A42F00202828282
:100E500004E0828A4FF6FD731A4082827047024690
:100E60000020B1F5007F00D100BF13880B4201D0F4
:100E7000012000E00020704701F40072B2F5007F0D
:100E800000D100BFCA430280704770B502460024FB
:100E9000002300250020A1F510666A3E00D100BFA6
:100EA000C1F3421501F01F03012606FA03F3012DD9
:100EB00002D19689334006E0022D02D1168A3340D2
:100EC00001E0968A33400C12012606FA04F41688D3
:100ED000344013B10CB1012000E0002070BD10B50A
:100EE00000220023A1F510646A3C00D100BF0A1261
:100EF00001249440A3B2DC43048010BD00380140BB
:100F00000044004000480040004C004000500040B9
:100F100030B943F2DB014FF0204242F8201005E0E7
:100F200043F2D2014FF0204242F820106FF070429D
:100F3000411C4FF0204343F8212011461A4602EB92
:100F40008002C2F80411704710280AD118214FF00E
:100F500020421166402151664FF0FC319166D16606
:100F600010E01821F84A11604FF040014FF0204284
:100F7000C2F884104FF0FC31F44A11604FF0204267
:100F8000C2F88C1070471820F14908604FF000003B
:100F90004FF02041C1F8A4004FF0FC30ED4908604B
:100FA00001F10401086001F1040108607047D0E913
:100FB00001121143C268114302691143426911438E
:100FC00082691143C2691143026A1143426A1143A3
:100FD000826A1143C26A1143026B11434FF02043EE
:100FE000026843F822108168082908D11A4601686E
:100FF00052F8211041F04001026843F82210416B81
:101000000968426B526841EA0211426B926841EAF8
:101010000221426BD26841EA0241426B126941EA05
:101020000251426B526941EA0261426B926911437B
:101030000268521C4FF0204343F82210C16AB1F5F8
:10104000804F1AD1816B0968826B526841EA0211A4
:10105000826B926841EA0221826B126941EA025175
:10106000826B526941EA0261826B926911430268A4
:1010700003EB8202C2F8041108E06FF070414FF0F8
:101080002043026803EB8202C2F80411704730B5B6
:10109000002100220023446844F0080485682C43A2
:1010A000C5682C4305692C43456944EA4524856994
:1010B00044EA4531C4692468C5696D6844EA052479
:1010C000C569AD6844EA0544C569ED6844EA05624E
:1010D000046A2468056A6D6844EA0524056AAD68F7
:1010E00044EA0544056AED6844EA05630468102C87
:1010F00005D14FF020442166A266E36607E0924CDA
:1011000021604FF02044C4F88820934C236030BD08
:10111000016841F01001426841EA4221826841EAD7
:1011200042318B4A1160C1680968C268526841EA5D
:101130000221C268926841EA0241C268D26841EA6B
:101140000261844A1160016909680269526841EAD2
:1011500002210269926841EA02410269D26841EAC9
:1011600002617E4A1160416909684269526841EA38
:1011700002214269926841EA02414269D26841EA29
:1011800002614FF02042C2F8B010704700210160A8
:101190000221416000218160C16001614161816182
:1011A000C16101624FF480514162490081620021B6
:1011B000C16201630F21426B1160426B5160FF21DC
:1011C000426B91600F21426BD160426B1161426BA7
:1011D00051610021426B91610F21826B1160826B22
:1011E0005160FF21826B91600F21826BD160826B15
:1011F0001161826B51610021826B916170471021F6
:101200000160002141608160C160016141618161D3
:10121000FC21C2691160C2695160C2699160C269F2
:10122000D160026A1160026A5160026A9160026ACA
:10123000D16070470021016041608160FC21C2687B
:101240001160C2685160C2689160C268D160026971
:10125000116002695160026991600269D16042695E
:10126000116042695160426991604269D160704782
:1012700051B14FF0204252F8202042F001024FF0CD
:10128000204343F8202009E04FF0204252F820206C
:10129000334B1A404FF0204343F82020704799B158
:1012A000102808D14FF02042126E42F004024FF095
:1012B00020431A661DE0244A126842F004024FF0EF
:1012C0002043C3F8802014E0102809D14FF02042B9
:1012D000126E234BDB1E1A404FF020431A6608E0C3
:1012E000194A12681F4B02EA03024FF02043C3F869
:1012F0008020704740B11649096841F004014FF061
:101300002042C2F8A01008E011490968154A01EA14
:1013100002014FF02042C2F8A010704799B1102886
:1013200008D14FF02042126E42F040024FF02043AD
:101330001A662DE0044A126842F040024FF0204342
:10134000C3F8802024E00FE0800000A0880000A007
:10135000A00000A0A80000A08C0000A0AC0000A08D
:10136000FEFF0F00FBFF0F00102808D14FF02042B6
:10137000126E684B1A404FF020431A6608E0664A26
:101380001268644B02EA03024FF02043C3F8802046
:10139000704701460020102903D14FF02042506FC2
:1013A00001E05E4A1068704710B5F2B1102807D10D
:1013B0004FF020435B6E0B434FF02044636632E0F6
:1013C000B0F5807F08D1564B1B6843EA01034FF00C
:1013D0002044C4F8843026E0524B1B6843EA0103E2
:1013E0004FF02044C4F8A4301DE0102807D14FF07E
:1013F00020435B6E8B434FF02044636613E0B0F5EF
:10140000807F08D1464B1B6823EA01034FF020443C
:10141000C4F8843007E0434B1B6823EA01034FF014
:101420002044C4F8A43010BD10B5024600200023AB
:10143000102A03D14FF02044636E07E0B2F5807F9D
:1014400002D1374C236801E0364C23680B4201D0AF
:10145000012000E0002010BD102807D14FF02042ED
:10146000526E8A434FF020435A6613E0B0F5807FF6
:1014700008D12B4A126822EA01024FF02043C3F838
:10148000842007E0274A126822EA01024FF0204335
:10149000C3F8A420704770B5024600200023002442
:1014A0000025102A03D14FF02046736E07E0B2F5F5
:1014B000807F02D11A4E336801E01A4E336803EA86
:1014C000010403EAD10514B10DB1012000E00020B0
:1014D00070BD102808D14FF02042526E22EAD1028E
:1014E0004FF020435A6613E0B0F5807F08D10C4AD4
:1014F000126822EAD1024FF02043C3F8842007E0AB
:10150000084A126822EAD1024FF02043C3F8A4200F
:1015100070470000BFFF0F00800000A0940000A0F3
:10152000840000A0A40000A010B56FF00400FEF736
:101530004FFF28490878C11700EB5171C910264A9E
:101540001170104600784FF47A714843234908809F
:1015500010BD0146214A12884A434FF0E0235A61E8
:1015600000229A6101221A6100BF4FF0E022106947
:1015700010F0010F02D010F4803FF6D000224FF09F
:10158000E0231A619A6170470146134A12784A4370
:101590004FF0E0235A6100229A6101221A6100BFD4
:1015A0004FF0E022106910F0010F02D010F4803FDC
:1015B000F6D000224FF0E0231A619A6170470021B3
:1015C00000E0491C00EBC00202EB0012B1EB820FFD
:1015D000F7D3704728000020290000202A000020AF
:1015E0004FF0D841088070474FF0D841488070478D
:1015F00001464FF0D84211805088508870474FF014
:10160000D84210805180704700B52220FFF7E8FFD4
:1016100000BD00B502461046FFF7E6FF00BD10B55D
:1016200003460C4619464E20FFF7E9FF21464F209E
:10163000FFF7E5FF10BD30B5044600250021084640
:10164000FFF7EDFFFFF7E0FF00BF03E04FF0D840EA
:1016500044806D1CB5F5963FF8D330BD70B5054696
:101660000E46144631462846FFF7D9FF2220FFF7E1
:10167000B7FF2046FFF7B8FF70BD70B504460D46B2
:101680001646701E44EA002081B24420FFF7B7FFDF
:10169000A9B24520FFF7B3FF581E81B24620FFF7DD
:1016A000AEFF70BD2DE9F04304460D4616461F46B9
:1016B000DDF81C803B46324629462046FFF7DDFF19
:1016C00029462046FFF7ABFFFFF79EFF781B401C23
:1016D000311B491C00FB01F902E04046FFF784FF83
:1016E0005FEA0900A9F10109F7D14FF4A073F022D4
:1016F00000210846FFF7C1FFBDE8F0832DE9F04F58
:1017000004460D4616461F46DDF824B0B44207D104
:10171000BD4205D15A4629462046FFF79FFF4CE0BF
:10172000A6EB0400791B01D40A4600E04A420028D7
:1017300001DB034600E043429A421FDBBD4205DB6A
:10174000AA463D465746A24634465646A94612E0AA
:10175000A9EB0500311B4843791B90FBF1F02044B5
:101760001FFA80F85A4649464046FFF777FF09F1CD
:1017700001001FFA80F9B945EADD1EE0B44205DB3D
:10178000AA463D465746A24634465646A04612E073
:10179000A8EB0400791B4843311B90FBF1F028446F
:1017A0001FFA80F95A4649464046FFF757FF08F1AD
:1017B00001001FFA80F8B045EADDBDE8F08F2DE9A1
:1017C000F04706460F4690469A46002445460320B9
:1017D000A0EB480952E03A1B91B2721B90B25246FC
:1017E000FFF73CFF3A1B91B2721990B25246FFF7D5
:1017F00035FF7A1991B2321B90B25246FFF72EFF95
:101800003A1B91B2721B90B25246FFF727FF7A1B28
:1018100091B2321B90B25246FFF720FF3A1991B2B3
:10182000721990B25246FFF719FF7A1B91B2321922
:1018300090B25246FFF712FF7A1991B2321990B264
:101840005246FFF70BFF3A1991B2721B90B2524603
:10185000FFF704FF641CB9F1000F03DAA000801D3C
:10186000814404E0601B80000A3081446D1E7A19B7
:1018700091B2321990B25246FFF7F0FEAC42AADDA7
:10188000BDE8F0872DE9F84105460E461746984613
:10189000079C33463A46314628460094FFF72EFF10
:1018A00043462A46314628460094FFF727FF434621
:1018B0003A46414628460094FFF720FF43463A4601
:1018C000314638460094FFF719FFBDE8F8812DE94D
:1018D000F04F0746884616461C46E82F02DCB8F54E
:1018E000987F01DDBDE8F08FA34604EBDB7007EBCA
:1018F000600208EB040341463846FFF7BEFE41464E
:101900003846FFF78CFEFFF77FFEA6F12000C6B237
:10191000002528E00C2C07D106EB4600FE4901EB20
:10192000800010F8059004E0FC4800EB061010F869
:1019300005904FF0000A0FE019F0010F03D009984D
:10194000FFF752FE02E00A98FFF74EFE4FEA6909E0
:101950000AF1010000F0FF0A04EBD471BAEB610F49
:10196000EADB681CC5B2A542D4DB4FF4A073F022B9
:1019700000210846FFF781FE00BFB3E710B502461D
:10198000012000E050430B00A1F10104E1B2F9D1C4
:1019900010BD2DE9FF4F84B0074691461E46DDE994
:1019A00011AB102500200390002438E0301B401EAE
:1019B000C1B20A20FFF7E2FFB9FBF0F00A21B0FB49
:1019C000F1F201FB12080398B0B9701EA04213DDBA
:1019D000B8F1000F0ED105EBD571491001FB047170
:1019E000C8B22B462022CDE900AB02950599FFF73E
:1019F0006EFF12E00120039005EBD571491001FB49
:101A00000471C8B22B4608F13001CAB2CDE900AB6F
:101A100002950599FFF75BFF00BF601CC4B2B4429A
:101A2000C4DB08B0BDE8F08F2DE9FC4304460D4649
:101A300016461F46DDF824904FF01008E82C03DD11
:101A4000002405EB080085B2B5F5987F06DD00207F
:101A5000044605464FF6FF70FFF7EDFDCDE900792E
:101A6000327843462946E0B2FFF731FFBDE8FC83F8
:101A700010B502460021AA4B13E0107801EB0114C7
:101A800013F81440A04209D1507801EB011403EB84
:101A900044046478A04201D1084610BD481C81B2BC
:101AA00000BF01EB011013F810008028E5DC00BF37
:101AB0000020F2E72DE9F04F89B080460D469146AF
:101AC0009A4610200090CB46002414E0BBF800009A
:101AD00001A921F8140001A830F81400000A31F817
:101AE0001410C9B240EA012001A921F814000BF139
:101AF000020B601C84B2102CE8DB2F4600982B18D8
:101B000008EB000229464046FFF7B7FD294640464C
:101B1000FFF785FDFFF778FD002417E000260FE0B2
:101B200001A830F81400B04010F4004F03D0504624
:101B3000FFF76FFD02E01298FFF76BFD701C86B295
:101B4000102EEDDB781C87B2601C84B2102CE5DB14
:101B50004FF4A073F02200210846FFF78EFD09B074
:101B6000BDE8F08F2DE9F84F05460C46164698461D
:101B7000DDF828904FF0100A4FF0000BDFF8A0B10D
:101B8000E02D03DD002504EB0A0084B2B4F5987F54
:101B900006DD0020054604464FF6FF70FFF74BFDBB
:101BA0003046FFF765FF074607EB07100BEB4000D9
:101BB000821C434621462846CDF80090FFF77AFF65
:101BC000BDE8F88F2DE9F84105460F4614469846C2
:101BD000079E19E0207880280BDD434622463946CF
:101BE00028460096FFF7BEFFA41C05F1100085B241
:101BF0000AE043462246394628460096FFF714FF7E
:101C0000641C05F1080085B220780028E2D1BDE807
:101C1000F88130B5014601F01F04C1F34513CA0A2B
:101C2000E50205EB43151544A8B230BD2DE9F0439C
:101C300004460D4616461F46DDF81C90C8463B4636
:101C4000324629462046FFF718FD29462046FFF771
:101C5000E6FCFFF7D9FC00203249088016E000209E
:101C60003149088008E038F8020BFFF7D2FC2E4813
:101C70000088401C2C490880301B2B490988884269
:101C8000F1DC28480088401C26490880781B25493B
:101C900009888842E3DC4FF4A073F0220021084653
:101CA000FFF7EBFCBDE8F08308B501210802FEF761
:101CB00008FD012140F2E110FEF710FD4CF23370F7
:101CC000ADF8000003208DF8020018208DF8030005
:101CD00069461648FEF7CAFD4FF6C070ADF8000021
:101CE00069461348FEF7C2FD0120ADF800006946C1
:101CF0001048FEF7BBFD4FF48050ADF80000694678
:101D00000D48FEF7B3FD0420ADF8000010208DF85B
:101D100003006946064811E0F43C000868410008E9
:101D2000584700082E0000202C000020001401401D
:101D300000180140001C014000200140FEF796FD04
:101D400004216D48FEF73FFE08BD00B597B00620A0
:101D50000190082002900320039000200490059039
:101D60000690079006200890002009900A90102005
:101D70000B9000200C900E900F9010904FF480501C
:101D80001190002012901390149001A815901690B5
:101D900008A8FFF70CF901210620FFF769FA17B030
:101DA00000BD10B5FFF780FFFFF7CFFF0A20FFF758
:101DB00006FC0A20FFF703FC0020FFF719FC4F493F
:101DC00008800A20FFF7FBFB01210020FFF717FC2A
:101DD00043F63F310120FFF712FC4FF4C0610220AF
:101DE000FFF70DFC07210C20FFF709FC06210D2051
:101DF000FFF705FC4FF448510E20FFF700FCBB2114
:101E00001E20FFF7FCFB46F664210320FFF7F7FBDB
:101E100000210F20FFF7F3FB4FF46F414420FFF741
:101E2000EEFB00214520FFF7EAFB40F23F11462080
:101E3000FFF7E5FB00213020FFF7E1FB40F20671E0
:101E40003120FFF7DCFB40F206213220FFF7D7FB01
:101E50004FF440713320FFF7D2FB02213420FFF70B
:101E6000CEFB00213520FFF7CAFB40F20771362078
:101E7000FFF7C5FB4FF400713720FFF7C0FB40F6BA
:101E800008113A20FFF7BBFB40F60D713B20FFF72E
:101E9000B6FB06212820FFF7B2FB41F2EB212F20F1
:101EA000FFF7ADFB4FF4E0412620FFF7A8FB4BF214
:101EB000E3012020FFF7A3FB44212720FFF79FFB2E
:101EC00047F645612E20FFF79AFB00211020FFF70F
:101ED00096FB0320FFF773FB46F670011120FFF716
:101EE0008EFB33210720FFF78AFB0520FFF767FBF6
:101EF0000020FFF7A0FB10BD0018014030000020BB
:101F00000EB5FFF711FBFFF74CFF00F0F8FA00F0F9
:101F10002DFB00F099FC00F017FE00F015FE4FF4C9
:101F200078436422A0217820FFF749FC4FF47843DE
:101F300064229F217820FFF742FC4FF4784364220B
:101F40009F217920FFF73BFC4FF478436422A021C6
:101F50007920FFF734FC45E2FDA001F067F9FE4867
:101F600000F021FEFD4800F000FE6420FFF7F1FACA
:101F7000FB4AFC4BFC4903C900F0BAFF04D800211E
:101F8000F94A1160516007E0F84AF94BF64903C974
:101F900000F074FEF44A03C2F34903C901F052FE93
:101FA00080468946F348008800F07EFF0646424698
:101FB0004B4600F009FF04460022EF4B00F05EFEA6
:101FC000824600F07EFF80B2E749029003C901F02B
:101FD000E3FD80468946E748008800F065FF8246B9
:101FE00042464B4600F0F0FE06460022E34B00F06E
:101FF00045FE044600F065FF80B201904FF4784042
:102000000090A0217820DDE90123FFF777FBD64976
:1020100003C901F017FE82468B46D648008800F0BF
:1020200043FF044652465B4600F0CEFE8046002247
:10203000D34B00F023FE064600F043FF80B2CA49AE
:10204000029003C901F0A8FD82468B46C94800886A
:1020500000F02AFF064652465B4600F0B5FE0446F5
:102060000022C64B00F00AFE804600F02AFF80B234
:1020700001904FF4784000909F217820DDE9012302
:10208000FFF73CFBB84903C901F0DCFD80468946F7
:10209000B848008800F008FF824642464B4600F0F0
:1020A00093FE06460022B64B00F0E8FD044600F021
:1020B00008FF80B2AC49029003C901F06DFD0646ED
:1020C0000F46AC48008800F0EFFE804632463B46A3
:1020D00000F07AFE04460022AA4B00F0CFFD8246B3
:1020E00000F0EFFE80B201904FF4784000909F2105
:1020F0007920DDE90123FFF701FB9B4903C901F0CA
:10210000A1FD82468B469B48008800F0CDFE8046AC
:1021100052465B4600F058FE06460022964B00F001
:10212000ADFD044600F0CDFE80B28F49029003C998
:1021300001F032FD804689468E48008800F0B4FEEA
:10214000824642464B4600F03FFE064600228D4B3B
:1021500000F094FD044600F0B4FE80B201904FF40C
:1021600078400090A0217920DDE90123FFF7C6FA2D
:102170004FF46170FFF7EDF97B4903C901F062FD8F
:10218000804689467B48008800F08EFE82464246A3
:102190004B4600F019FE06460022774B00F06EFD1C
:1021A000044600F08EFE80B26F49029003C901F030
:1021B000F3FC06460F466F48008800F075FE804627
:1021C00032463B4600F000FE824600226B4B00F098
:1021D00055FD044600F075FE80B20190002000908D
:1021E000A0217820DDE90123FFF788FA5E4903C9C1
:1021F00001F028FD804689465E48008800F054FEC4
:10220000824642464B4600F0DFFD064600225C4B0C
:1022100000F034FD044600F054FE80B252490290B2
:1022200003C901F0B9FC04460D465248008800F08D
:102230003BFE064622462B4600F0C6FD80460022A5
:102240004E4B00F01BFD824600F03BFE80B2019039
:10225000002000909F217820DDE90123FFF74EFA4E
:10226000414903C901F0EEFC04460D46414800888F
:1022700000F01AFE804622462B4600F0A5FD0646D9
:1022800000223F4B00F0FAFC824600F01AFE80B2BA
:102290003549029003C901F07FFC04460D463548DC
:1022A000008800F001FE064622462B4600F08CFD19
:1022B00080460022334B00F0E1FC824600F001FE34
:1022C00080B20190002000909F217920DDE9012358
:1022D000FFF714FA244903C901F0B4FC06460F467F
:1022E0002448008800F0E0FD804632463B4600F07E
:1022F0006BFD04460022204B00F0C0FC824600F03B
:10230000E0FD80B21849029003C901F045FC064681
:102310000F461848008800F0C7FD804632463B460D
:1023200000F052FD04460022164B00F0A7FC824646
:1023300000F0C7FD80B2019000200090A02179201C
:10234000DDE90123FFF7DAF900F054FB04B21BE0EA
:102350006F6B2121210D0A0042000020480000205F
:102360004AD8124DFB21194038000020A4D5CFEBEC
:10237000E9CEBA3F400000200000644000005E400B
:1023800000E0634000405E40214617A000F04EFF91
:1023900000F0C4FA04B2214618A000F047FF00F094
:1023A000CFFA04B2214619A000F040FF00F0DAFA9B
:1023B00004B2214619A000F039FF00F0E5FA04B29A
:1023C00021461AA000F032FF00F0F0FA04B22146D4
:1023D0001AA000F02BFF00F0FBFA04B221461BA06C
:1023E00000F024FFB8E5000074656D7065726174DB
:1023F0007572653D25640D0A000000006765744133
:102400006363583D25640D0A000000006765744150
:102410006363593D25640D0A00000000676574413F
:1024200063635A3D25640D0A000000006765744728
:1024300079726F583D25640D0A0000006765744786
:1024400079726F593D25640D0A0000006765744775
:1024500079726F5A3D25640D0A000000704700BF75
:10246000FEE700BFFEE700BFFEE700BFFEE77047E4
:10247000704770477047000008B501210420FEF73F
:102480002DF94FF40070ADF8000003208DF8020024
:1024900018208DF8030069463148FEF7E7F94FF43C
:1024A0008060ADF8000004208DF8030069462C48D8
:1024B000FEF7DCF908BD1FB5012144F20100FEF76B
:1024C0000DF94FF4E13000900020ADF80400ADF8B4
:1024D0000600ADF80800ADF80C000C20ADF80A00BD
:1024E00069462048FEF751FB012240F225511D4864
:1024F000FEF7E3FB01211B48FEF7D3FB1FBD10B520
:10250000FFF7BAFFFFF7D7FF10BD70B504460D46C1
:1025100000BF80212046FEF7A2FC0028F9D0294602
:102520002046FEF72EFC70BD70B504460D46E1B2A4
:102530000C48FFF7EAFF204670BD10B5202109487E
:10254000FEF78DFC18B120210648FEF795FC0548E2
:10255000FEF71BFCC4B221460348FFF7D6FF10BDAF
:1025600000080140003801400044004008B5012146
:102570000820FEF7B3F8C020ADF8000003208DF866
:10258000020014208DF803006946AC48FEF76EF98E
:102590008021AA48FEF715FA4021A848FEF711FA53
:1025A00008BD0F2000BF0100A0F10100FBD1704762
:1025B00010B58021A148FEF704FA40219F48FEF79C
:1025C00000FAFFF7EEFF9D480830006810F0800F1A
:1025D00001D1012010BD80219848FEF7F4F9FFF7E2
:1025E000E0FF96480830006800F08000012801D123
:1025F0000220EFE70020EDE710B580218F48FEF7BD
:10260000E2F940218D48FEF7DCF9FFF7CAFF80218F
:102610008A48FEF7D6F9FFF7C4FF80218748FEF706
:10262000D0F910BD10B540218448FEF7CCF98021C7
:102630008248FEF7C6F9FFF7B4FF40217F48FEF756
:10264000C0F9FFF7AEFF40217C48FEF7BCF9FFF769
:10265000A8FF10BD10B540217848FEF7B4F98021DD
:102660007648FEF7B0F9FFF79CFF40217348FEF76C
:10267000A8F9FFF796FF40217048FEF7A4F9FFF78D
:1026800090FF10BD70B5044600251DE040216B4849
:10269000FEF799F9FFF785FF14F0800F04D0802131
:1026A0006648FEF78EF903E080216448FEF78BF957
:1026B0006006040EFFF775FF40216048FEF781F9C0
:1026C000FFF76FFF681CC5B2082DDFDB40215B48B8
:1026D000FEF779F9FFF765FF40215848FEF771F9D9
:1026E000FFF75FFF55480830006810F0800F08D0F2
:1026F00053A000F09BFD40215048FEF764F90020F4
:1027000070BD40214D48FEF75EF90120F8E770B535
:10271000002480214948FEF754F900BF002517E046
:1027200040214648FEF74FF9FFF73BFF4021434861
:10273000FEF747F9FFF735FF6006040E3F48083003
:10274000006810F0800F01D044F00104681CC5B28D
:10275000082DE5DB204670BD70B506460C461546D3
:10276000FFF726FF3046FFF78DFF2046FFF78AFF71
:102770002846FFF787FFFFF73FFF70BD2DE9F041C7
:1027800080460D4616461F46FFF712FF4046FFF7EC
:1027900079FF2846FFF776FF002403E0305DFFF75E
:1027A00071FF641CBC42F9DBFFF726FFBDE8F08136
:1027B00070B504460D46FFF7FBFE2046FFF762FFAB
:1027C0002846FFF75FFFFFF7F3FE601CC0B2FFF77C
:1027D00059FFFFF79CFF0646FFF724FFFFF70CFFAA
:1027E000304670BD2DE9F04180460E4617461C4626
:1027F0002546FFF7DDFE4046FFF744FF3046FFF772
:1028000041FFFFF7D5FE08F10100C0B2FFF73AFF24
:1028100000250BE0FFF77BFF7855601EA84202D130
:10282000FFF700FF04E0FFF715FF6D1CA542F1DB89
:1028300000BFFFF7E1FEBDE8F0810000000C0140A1
:102840006E6F2061636B000010B50A20FEF781FEF9
:1028500000226B21D020FFF77FFF6B21D020FFF7F4
:10286000A7FF044621466CA000F0E0FC18221B21C3
:10287000D020FFF771FF1B21D020FFF799FF0446FE
:10288000214670A000F0D2FC00221C21D020FFF7CE
:1028900063FF1C21D020FFF78BFF0446214675A063
:1028A00000F0C4FC01221921D020FFF755FF1921A7
:1028B000D020FFF77DFF044621467AA000F0B6FC49
:1028C00006221A21D020FFF747FF1A21D020FFF758
:1028D0006FFF044621467EA000F0A8FC322237217B
:1028E000D020FFF739FF1A21D020FFF761FF0446FF
:1028F000214681A000F09AFC01223821D020FFF768
:102900002BFF1A21D020FFF753FF0446214684A055
:1029100000F08CFC0A20FEF71CFE10BD70B50024F0
:10292000002500263B21D020FFF742FF05463C2131
:10293000D020FFF73DFF064646EA0524204670BD3D
:1029400070B50024002500263D21D020FFF730FF80
:1029500005463E21D020FFF72BFF064646EA052418
:10296000204670BD70B50024002500263F21D020F0
:10297000FFF71EFF05464021D020FFF719FF06464E
:1029800046EA0524204670BD70B5002400250026C7
:102990004321D020FFF70CFF05464321D020FFF74D
:1029A00007FF064646EA0524204670BD70B50024A0
:1029B000002500264521D020FFF7FAFE05464521D7
:1029C000D020FFF7F5FE064646EA0524204670BDF6
:1029D00070B50024002500264721D020FFF7E8FE2F
:1029E00005464721D020FFF7E3FE064646EA0524C8
:1029F000204670BD70B50024002500264121D0205E
:102A0000FFF7D6FE05464221D020FFF7D1FE06464D
:102A100046EA0524204670BD526561642066726FE7
:102A20006D205057525F4D474D5420305825782C1B
:102A30002073686F756C6420626520307830300DCB
:102A40000A000000526561642066726F6D2047596C
:102A5000524F5F434F4E46494720305825782C202F
:102A600073686F756C6420626520307831380D0AA8
:102A700000000000526561642066726F6D20414362
:102A800043454C5F434F4E46494720305825782CEC
:102A90002073686F756C6420626520307830300D6B
:102AA0000A000000526561642066726F6D20534D0C
:102AB000504C52545F44495620305825782C736846
:102AC0006F756C6420626520307830310D0A00002B
:102AD000526561642066726F6D20434F4E464947D0
:102AE00020305825782C2073686F756C64206265DF
:102AF00020307830360D0A00526561642066726FAE
:102B00006D20434F4E46494720305825782C20737E
:102B1000686F756C6420626520307833320D0A006E
:102B2000526561642066726F6D20434F4E4649477F
:102B300020305825782C2073686F756C642062658E
:102B400020307830310D0A0010B5702200213C2071
:102B5000FFF702FEA02201213C20FFF7FDFD00222D
:102B600002213C20FFF7F8FD10BD10B504460A21F4
:102B70003C20FFF71DFE20700B213C20FFF718FEC4
:102B800060700C213C20FFF713FEA07021781EA07E
:102B900000F04CFB617823A000F048FBA17828A04E
:102BA00000F044FB10BD70B5044603213C20FFF744
:102BB000FFFD054604213C20FFF7FAFD40EA052011
:102BC000208007213C20FFF7F3FD054608213C202B
:102BD000FFF7EEFD40EA0520608005213C20FFF76D
:102BE000E7FD054606213C20FFF7E2FD40EA05200F
:102BF000A080A08803B2608802B2208801B217A02A
:102C000000F014FB70BD0000696430203D20257881
:102C10002C092073686F756C6420626520307834ED
:102C2000380D0A00696431203D2025782C09207375
:102C3000686F756C6420626520307833340D0A004B
:102C4000696432203D2025782C092073686F756CEB
:102C50006420626520307833330D0A006D6567614A
:102C6000583D25642C096D656761593D25642C0923
:102C70006D6567615A3D25640D0A00002DE9FE4F20
:102C8000074681EA0300C00F0E46019021F0004183
:102C900023F00044B81AA14105D238463146174600
:102CA0001E460B46024623F00040104304D138462E
:102CB000314603B0BDE8F08F350DC5F30A00C3F30C
:102CC0000A510290401A0090402868DAC3F31300BA
:102CD00040F4801B0198924620B10023D2EB030AF6
:102CE00063EB0B0B00985946C0F14002504600F0D0
:102CF00044F980460C4650465946009A00F05CF96B
:102D0000C0197141EF1785EA11533B4340D0019A36
:102D100052B3009A012A11DC0022801A4FF00043BE
:102D200061EB055103EA05538018CDE9002341F515
:102D300080114246234600F05EF9BAE72E050025D1
:102D4000401B61EB0601401941F580120018524109
:102D50002818A6F5001343EB020140EAD47029437A
:102D600018EB0808644113E064084FEA38084FF094
:102D7000000244EAC0744FEA0553801A61EB030174
:102D8000801841F5801149084FEA300080185941F8
:102D90004246234603B0BDE8F04F00F01FB901984A
:102DA000012240000023D0EB020263EBE0730198A4
:102DB0004FEAE074381A66EB0401EBE783F0004356
:102DC0005CE781F0004159E72DE9FE4F81EA0304F9
:102DD00021F0004504F0004423F000414FF0000AC8
:102DE000009450EA050302D052EA010304D1002006
:102DF000014603B0BDE8F08FC1F30A53C5F30A548E
:102E00001C44A0FB02B3C5F3130545F4801CC1F3B9
:102E1000130141F480180CFB023300FB083EA4F2BE
:102E2000F334810A930A41EA8C5143EA88530194AE
:102E3000A1FB03474FEA9C2505FB03734FEA982645
:102E400001FB06373D05260545EA1435BBEB0601B7
:102E50006EEB0503850E920E45EA8C1542EA881248
:102E6000A5FB0206261E67EB00070C0D44EA03349F
:102E7000A41947EB1350C1F313064FF00003194692
:102E80004FEA033343EA165343EA0403019CE5FB8C
:102E90000201A4F10C040294009C4FEA0632CDE931
:102EA00000A400F0A8F8A4E70EB540F23341029167
:102EB0000021CDE900110A460B4600F09CF803B052
:102EC00000BDC1F30A52C1F3130140F2FF3341F4D4
:102ED00080119A4201DA0020704740F233439A424F
:102EE000A2F2334202DC524200F056B890407047E2
:102EF00030B5002904DB4FF00044404264EB01018F
:102F0000002B04DB4FF00044524264EB0303994270
:102F100008BF904230BD00002DE9F05F054600205B
:102F200092469B4688460646814640241BE028463A
:102F300041464746224600F02FF852465B46801A2B
:102F4000994110D310461946224600F016F82D1A62
:102F500067EB01084F4622460120002100F00DF8E2
:102F600017EB00094E41201EA4F10104DFDC4846A6
:102F700031462A464346BDE8F09F202A04DB203A2A
:102F800000FA02F1002070479140C2F1200320FABC
:102F900003F3194390407047202A04DB203A21FABA
:102FA00002F00021704721FA02F3D040C2F1200262
:102FB0009140084319467047202A06DBCB17203A78
:102FC00041FA02F043EAE071704741FA02F3D0405F
:102FD000C2F12002914008431946704710B5002BFA
:102FE00008DA401C41F1000192185B411A4301D1FB
:102FF00020F0010010BD2DE9F04D92469B4611B125
:10300000B1FA81F202E0B0FA80F220329046FFF786
:10301000B4FF06460F4640EA0A0041EA0B01524659
:103020005B46084303D130463946BDE8F08D19466A
:1030300052EA010015D0C8F140025046FFF7ACFF3C
:1030400004460D46504659464246FFF796FF084350
:1030500001D0012000E00020044345EAE07526434A
:103060002F430A984FEAD625A0EB08000A304FEA12
:1030700046534FF0000245EA47554FEAD72402D5A0
:1030800000200146D1E7010550196141DDE90845FD
:1030900000196941BDE8F04DA0E72DE9F04D81EA46
:1030A000030404F0004B21F0004714464FF0000ADF
:1030B00023F0004150EA070220D054EA01021DD05B
:1030C000C1F30A550246C1F31300C7F30A56C7F30A
:1030D000130340F4801143F48013A6EB0508101B82
:1030E000D64608F2FD3873EB010002D308F101085F
:1030F00001E092185B41B8F1000F03DA00200146AD
:10310000BDE8F08D00204FF48015064607460EE01E
:10311000B2EB040C73EB010C04D3121B064363EBFC
:1031200001032F436D084FEA300092185B4150EACB
:10313000050CEDD152EA030012D082EA040083EAC2
:103140000105284303D100224FF0004308E0101B83
:103150008B4102D20122002302E06FF001025310E2
:103160001AEB060047EB085110EB0A0041EB0B018C
:10317000BDE8F04DFFF732BF70B521F000430343C7
:103180000CD0C1F30A540026D4EB060566EB060307
:10319000D417AD1AA34102DB0020014670BD001C0C
:1031A00041EB025170BD0000064C074D06E0E0689F
:1031B00040F0010394E8070098471034AC42F6D37E
:1031C000FCF7BAFF48A5000868A500080EB5C10FB6
:1031D00080EAE0700844CA07002140F233438DE8DA
:1031E0000E000A460B46FFF706FF03B000BD70B5A0
:1031F000C1F30A5201F000450024C1F3130140F26B
:10320000FF3341F480119A4201DA002070BD40F290
:1032100033439A42A2F2334203DC5242FFF7BCFE30
:1032200000E090402C43F1D0404270BD0FB4054BFC
:1032300010B503A9044A029800F046FB10BC5DF8E3
:1032400014FB0000292500084C000020490050EA2A
:10325000C12018BF04204A0D18BF40F0010040F201
:10326000FF72B2EB515F08BF40F00200012808BFB7
:10327000052070472DE9F74F144696B00021C4E9A8
:1032800002111799099121F00047C9498F4206DCC4
:103290001799C4E9000119B00020BDE8F08FC549B5
:1032A000C54EB94241DD0999DFF81083DFF810A35C
:1032B000C44A00291BDD33461799FFF77FFDB7424B
:1032C00006D0C14AC14BFFF779FDC4E900010AE00D
:1032D0004FF0D352BD4BFFF771FD42465346FFF707
:1032E0006DFDC4E9000119B00120BDE8F08F35463D
:1032F00033461799FFF7C2FCAF4206D0B24AB34B30
:10330000FFF7BCFCC4E900010AE04FF0D352AF4B19
:10331000FFF7B4FC42465346FFF7B0FCC4E9000196
:1033200019B04FF0FF30BDE8F08FA9498F421799CF
:1033300077DC21F000458346A64AA74B2946FFF7D4
:1033400043FD0022A54BFFF799FCFFF750FF0A90C1
:10335000FFF73CFF80468A469A4A3346FFF734FD22
:103360002B465A46FFF72DFD05460E46964A974BCB
:1033700040465146FFF728FD3A0D01270C922A4698
:103380003346FFF71EFD032FC4E9000138D00C9827
:10339000C1F30A51401A07EB4711113988422FDD5A
:1033A0008F480096784400EB07100D90D0E9002379
:1033B000AB4640465146FFF707FDCDE90401024602
:1033C0000B4658460099FFF7F9FC05460E460246A3
:1033D0000B4658460099FFF7F1FCDDE90423FFF79F
:1033E000EDFC83460D9804915146D0E902234046F6
:1033F000FFF7EAFC5A46049BFFF7E0FC7F1CBEE7A0
:1034000009980028A2BF0A9819B0BDE8F08F61683A
:1034100081F0004161600A9819B04042BDE8F08F28
:10342000FFE784461798C1F31301C0F30A5041F433
:103430008011A0F2F5300591411100F01F08C8F18C
:10344000200012900020109011906648784400EB04
:10345000810000F1140311A8062719685D68129A0B
:1034600001FA08F125FA02F21143059AD0F800A0FA
:10347000A1FB0256A1FB0C2192440D44924534BF9E
:103480004FF0010B4FF0000B50F8042C05EB0B0E26
:1034900072448D4234BF012100213144BBF1000F41
:1034A00002D0AA4202D903E0AA4201D2012500E0DB
:1034B00000252944C0F800A040E902121B1F001F8C
:1034C0007F1ECAD10C980F9F00F10050800F129000
:1034D0000C98DDE90D568000FFF778FECDE9080174
:1034E0002846FFF7E1FC6FF01D02FFF745FECDE92E
:1034F00006013046FFF7D8FC6FF03D02FFF73CFEB7
:1035000082468B463846FFF7CFFC6FF05D02FFF72F
:1035100033FE0746884652465B46FFF7AFFBDDE9C0
:103520000623FFF7ABFBDDE90823FFF7A7FBDDE987
:10353000082300250E462846FFF740FCDDE9062358
:10354000FFF73CFC52465B46FFF738FC3A464346E1
:10355000FFF737FCDFF894A0234A5346FFF734FC0B
:1035600080460F46224A234B31462846FFF72CFC63
:1035700042463B46FFF782FB074688464FF0A8428B
:10358000534631462846FFF71FFC3A464346FFF7AD
:1035900075FB179A12F0004F04D0129A81F0004187
:1035A00052421292C4E90001129819B0BDE8F08F9E
:1035B000FB21E93F7CD90240FB21F93F7370032EC8
:1035C0008A19A33B000040543163621A61B4D03DB4
:1035D000FB21394183C8C96D305FE43F0000E03F03
:1035E000B070000038700000182D4454FB21F93DE4
:1035F0003326A611460B113C2DE9FF4D21F0004862
:1036000007460C46B8F1795F08DAFFF7F0FD0028AD
:1036100001BF0020324904B0BDE8F08D3A46234690
:1036200010461946FFF7D0FB054602462D480E46C8
:103630000B460621784400F05DF82A463346FFF732
:10364000C3FBDDE9022382468B4638462146FFF75D
:10365000BBFB04460F4652465B4628463146FFF701
:10366000B3FB22463B46FFF7A9FB07468A464FF0CD
:10367000FF3228463146FFF77FFD1B4A90450ADAA4
:103680003A465346FFF79AFB04B00022BDE8F04DDE
:10369000134BFFF796BB154A4245A8BFA8F5001586
:1036A0004FF00004B8BF124D22462B46FFF786FBB1
:1036B0000646884622462B4600200949FFF77EFB36
:1036C00004460D463A46534630464146FFF776FBE0
:1036D00004B022462B46BDE8F04DFFF772BB000058
:1036E0000000F03FF06D00003333D33F0000E93FAE
:1036F0000000D23F2DE9F0414F1E00EBC701044608
:10370000D1E9000115461E4637F006020DD02A46C3
:103710003346FFF759FB7F1E04EBC703D3E90023B1
:10372000FFF7ACFA37F00602F1D1022F25D0042FB3
:1037300013D0062F18BFBDE8F0812A463346FFF7A5
:1037400043FBD4E90A23FFF799FA2A463346FFF7E9
:103750003BFBD4E90823FFF791FA2A463346FFF7EB
:1037600033FBD4E90623FFF789FA2A463346FFF7ED
:103770002BFBD4E90423FFF781FA2A463346FFF7EF
:1037800023FBD4E90223FFF779FA2A463346FFF7F1
:103790001BFBD4E90023BDE8F041FFF76FBA00003E
:1037A0002DE9FF4D054621F0004084B00C46B0F1F4
:1037B000795F0BDA2846FFF749FD042808BF00F0BF
:1037C00065F8284608B02146BDE8F08D2A460B462C
:1037D0001046FFF7F9FA06460F462A462346FFF73A
:1037E000F3FA804626488A4632463B46052178440D
:1037F000FFF780FF83461098029160B3214A224B65
:1038000040465146FFF7E0FACDE900015A464046EE
:103810005146029BFFF7D8FA82468846DDE9060149
:103820004FF0FF32FFF7A8FC52464346FFF7C6FAB7
:1038300032463B46FFF7C8FADDE90623FFF7BEFA3A
:10384000DDE90023FFF7BAFA08B02A462346BDE8AF
:10385000F04DFFF7B6BA0B465A4630463946FFF7E9
:10386000B3FA084A084BFFF709FA42465346FFF7F6
:10387000ABFA08B02A462346BDE8F04DFFF7FEB983
:103880002E6D0000495555555555C5BF024A0020BB
:103890001107FFF771BC000001FDFFFF02E008C83F
:1038A000121F08C1002AFAD170477047002001E0BA
:1038B00001C1121F002AFBD17047000001490860B6
:1038C00070470000500000202DE9FF4F8DB00446E6
:1038D0009B460F46002641E1252801D00F9963E061
:1038E0000025641CA14AA84601212378203B01FA47
:1038F00003F0104202D00543641CF6E720782E281E
:1039000017D114F8010F45F004052A280ED06FF0E6
:103910002F022078A0F1300109290AD808EB88018C
:1039200002EB410100EB0108641CF2E757F8048B3D
:10393000641C20786C280DD004DC4C2812D06A2836
:1039400011D104E074280DD07A280CD10AE045F496
:10395000001507E0617845F48015814202D1641CAE
:1039600005F58015641C94F800C0BCF1690F4DD0BA
:103970000CDCBCF1000F6ED0BCF1580F6FD0BCF165
:10398000630F16D0BCF1640F0CD13FE0BCF1700F97
:103990006AD0BCF1730F15D0BCF1750F5DD0BCF1CE
:1039A000780F5CD00F9960465A46904706F10106A1
:1039B000D3E001CF8DF8000000208DF80100E9462A
:1039C000012003E057F8049B4FF0FF3069074FF0E8
:1039D000000501D40AE06D1C45450DDA8542FADB8D
:1039E00019F805100029F6D106E06D1C8542FCDBB4
:1039F00019F805100029F8D12E4404E019F8010B3C
:103A00005A460F9990476D1EF8D2A6E00A20002171
:103A1000CDE90801C5F3025002280AD001CFC11731
:103A200000290DDA0023D0EB030063EB01012D2206
:103A300009E007F1070727F00707F7E80201EFE7BA
:103A40002A0504D52B228DF82820012230E0EA0730
:103A50002ED02022F7E785E001E00A2000E01020C8
:103A60000021CDE9080107E01020002145F0040500
:103A7000CDE908014FF00808C5F3025002281CD018
:103A800001CF00214FF0000A2A0712D5BCF1700FB8
:103A900019D0DDE9083283F01003134309D150EA4D
:103AA000010206D030228DF828208DF829C002228C
:103AB0009246BCF1580F10D00AE0FF1D27F007070F
:103AC000F7E80201DEE740228DF828204FF0010AD6
:103AD00027A20DF120090B9209E02AA2F9E7DDE9FE
:103AE0000823FFF719FA0B9B9B5C09F8013D50EA8C
:103AF0000102F4D1ADEB090000F120000890680745
:103B000001D44FF001080899884502DDA8EB0100B7
:103B100000E000208046002506E00AA85A46405DE5
:103B20000F999047761C6D1C5545F6DB04E030205C
:103B30005A460F999047761CB8F10001A8F1010888
:103B4000F5DC05E019F8010B5A460F999047761CF1
:103B50000899481E08900029F4DC641C207800288D
:103B60007FF4BAAE11B03046BDE8F08F09280100ED
:103B700030313233343536373839616263646566E3
:103B800000000000303132333435363738394142A5
:103B9000434445460000000000B5284B21F0004298
:103BA00087B09A42DCBF0022134631DD244B9A4293
:103BB0000DD168B94FF00100FFF780FE002207B079
:103BC0001346104611465DF804EBFFF766BA06DBB4
:103BD00007B04FF001025DF804EBFFF7CDBA02AA7F
:103BE000FFF748FB10F0030104BF0DF1080CBCE81F
:103BF0000F000DD0012001290ED0022914D00DF1A3
:103C0000080C0090BCE80F00FFF7CAFD07B000BD2C
:103C1000FFF7F2FC07B000BD0DF1080C0090BCE806
:103C20000F00FFF7BDFD05E00DF1080CBCE80F002B
:103C3000FFF7E2FC07B081F0004100BDFB21E93F46
:103C40000000F07F00B5294B21F0004287B09A4276
:103C500003DC00221346009233E0254B9A420DD13B
:103C600068B94FF00100FFF729FE002207B01346A4
:103C7000104611465DF804EBFFF70FBA06DB07B0FC
:103C80004FF001025DF804EBFFF776BA02AAFFF7E6
:103C9000F1FA10F003014FF001000DD0012914D00A
:103CA00002291AD00DF1080CBCE80F00FFF7A4FCA4
:103CB00007B081F0004100BD0DF1080C0090BCE898
:103CC0000F00FFF76DFD07B000BD0DF1080CBCE85B
:103CD0000F00FFF791FC07B000BD0DF1080C00903C
:103CE000BCE80F00FFF75CFDE2E70000FB21E93FC5
:103CF0000000F07F00000000000000000000000055
:103D000000000404040404040004000000140A0A6F
:103D10000000000000000000000014143F140A3FDF
:103D20000A0A000000041E1505060C14150F0400F5
:103D3000000012150D0A142C2A1200000000040ABB
:103D40000A1E1515093600000002020100000000DD
:103D500000000000002010080808080808102000D3
:103D60000002040808080808080402000000000413
:103D7000150E0E150400000000000404041F0404C6
:103D8000040000000000000000000000000202012A
:103D900000000000001F0000000000000000000004
:103DA00000000000000200000010080808040402DF
:103DB0000202010000000E1111111111110E00007C
:103DC0000000040604040404040E000000000E11A8
:103DD00011080402011F000000000E11100C101049
:103DE000110E00000000080C0A0A091E0818000045
:103DF00000001F01010F1010110E000000000E093D
:103E0000010F1111110E000000001F090804040425
:103E10000404000000000E11110E1111110E00001B
:103E200000000E1111111E10120E00000000000003
:103E30000400000000040000000000000004000076
:103E400000040400002010080402040810200000F0
:103E5000000000001F00001F000000000002040816
:103E6000102010080402000000000E1111080404C4
:103E70000004000000000E111915151D011E0000A0
:103E8000000004040C0A0A1E1233000000000F1286
:103E9000120E1212120F000000001E11010101018A
:103EA000110E000000000F1212121212120F000069
:103EB00000001F120A0E0A02121F000000001F124B
:103EC0000A0E0A020207000000001C12010139114B
:103ED000120C000000003312121E121212330000E6
:103EE00000001F0404040404041F000000003E0836
:103EF0000808080808090700000037120A060A0A1D
:103F0000123700000000070202020202223F0000F6
:103F100000001B1B1B1B15151515000000003B1294
:103F200016161A1A1217000000000E1111111111A5
:103F3000110E000000000F12120E02020207000014
:103F400000000E1111111117190E180000000F12A8
:103F5000120E0A121237000000001E11010608108E
:103F6000110F000000001F1504040404040E0000DB
:103F70000000331212121212120C00000000331251
:103F8000120A0A0C0404000000001515150E0A0A96
:103F90000A0A000000001B0A0A04040A0A1B0000A7
:103FA00000001B0A0A040404040E000000001F099C
:103FB00008040402121F0000001C0404040404048A
:103FC00004041C0000020202040408080810000097
:103FD000000E08080808080808080E0000040A0077
:103FE00000000000000000000000000000000000D1
:103FF0000000003F0004000000000000000000007E
:1040000000000000000C121C123C00000000030223
:10401000020E1212120E000000000000001C12021C
:10402000021C000000001810101C1212123C0000AC
:1040300000000000000C121E021C000000003804EA
:10404000041E0404041E000000000000003C120CCA
:10405000021E221C00000302020E12121237000080
:104060000000040000060404040E00000000080024
:10407000000C08080808080700000302023A0A0EAC
:10408000123700000000070404040404041F0000A9
:1040900000000000000F15151515000000000000BD
:1040A000000F12121237000000000000000C121264
:1040B000120C000000000000000F1212120E020786
:1040C00000000000001C1212121C1038000000003A
:1040D000001B06020207000000000000001E020C88
:1040E000101E000000000004040E04040418000068
:1040F00000000000001B1212123C00000000000033
:104100000037120A0C040000000000000015150E14
:104110000A0A000000000000001B0A040A1B00003D
:10412000000000000037120A0C0404030000000025
:10413000001E0804041E00000018080808040808EF
:1041400008081800080808080808080808080808E7
:1041500000060404040804040404060002251800F0
:10416000000000000000000000000000000000004F
:104170000000000000000000000000080808080817
:10418000080800001818000000486C241200000005
:1041900000000000000000000000002424247F1222
:1041A00012127F12121200000000081C2A2A0A0CA8
:1041B0001828282A2A1C0808000000222515151591
:1041C0002A585454542200000000000C1212120A03
:1041D00076252911916E00000006060403000000F8
:1041E0000000000000000000004020101008080837
:1041F00008080810102040000002040808101010E1
:1042000010101008080402000000000008086B1CD1
:104210001C6B0808000000000000000008080808E7
:104220007F080808080000000000000000000000EF
:10423000000000000606040300000000000000006B
:10424000FE00000000000000000000000000000070
:104250000000000006060000000080404020201002
:104260001008080404020200000000182442424220
:104270004242424224180000000000080E080808CC
:1042800008080808083E00000000003C42424220A6
:1042900020100804427E00000000003C424220182A
:1042A00020404042221C000000000020302824242E
:1042B00022227E20207800000000007E0202021AE6
:1042C00026404042221C0000000000382402021A4E
:1042D00026424242241800000000007E22221010D4
:1042E00008080808080800000000003C4242422478
:1042F00018244242423C000000000018244242427E
:1043000064584040241C0000000000000000181801
:104310000000000018180000000000000000000865
:1043200000000000000808040000004020100804FD
:1043300002040810204000000000000000007F0080
:1043400000007F00000000000000000204081020B0
:1043500040201008040200000000003C4242464099
:1043600020101000181800000000001C225A55559B
:1043700055552D42221C0000000000080818141496
:10438000243C224242E700000000001F2222221E9D
:1043900022424242221F00000000007C42420101F2
:1043A00001010142221C00000000001F2242424283
:1043B00042424242221F00000000003F4212121EF1
:1043C00012120242423F00000000003F4212121E41
:1043D00012120202020700000000003C222201012A
:1043E00001712122221C0000000000E742424242EB
:1043F0007E42424242E700000000003E08080808F2
:1044000008080808083E00000000007C101010108A
:10441000101010101010110F0000007722120A0E59
:104420000A12122222770000000000070202020294
:1044300002020202427F0000000000773636363664
:104440002A2A2A2A2A6B0000000000E346464A4A2C
:1044500052525262624700000000001C224141415A
:1044600041414141221C00000000003F42424242C3
:104470003E020202020700000000001C22414141EE
:1044800041414D53321C60000000003F4242423E19
:104490001212222242C700000000007C42420204A5
:1044A00018204042423E00000000007F49080808F2
:1044B00008080808081C0000000000E742424242C9
:1044C00042424242423C0000000000E742422224B5
:1044D00024141418080800000000006B49494949D9
:1044E0005555362222220000000000E742242418FD
:1044F0001818242442E70000000000772222141438
:1045000008080808081C00000000007E2120101088
:1045100008040442423F0000007808080808080820
:1045200008080808080878000000020204040808C7
:104530000810102020204040001E101010101010F5
:104540001010101010101E00003844000000000071
:10455000000000000000000000000000000000005B
:1045600000000000000000FF00060800000000003E
:104570000000000000000000000000000000003CFF
:104580004278444242FC0000000000030202021A8A
:1045900026424242261A00000000000000000038B7
:1045A00044020202443800000000006040404078AD
:1045B0004442424264D80000000000000000003C79
:1045C000427E0202423C0000000000F08808087EA3
:1045D00008080808083E0000000000000000007CF9
:1045E00022221C023C42423C000000030202023A2A
:1045F0004642424242E700000000000C0C00000E60
:1046000008080808083E00000000003030000038AC
:10461000202020202020221E00000003020202721F
:10462000120A1612227700000000000E080808087F
:1046300008080808083E0000000000000000007F95
:104640009292929292B70000000000000000003B9E
:104650004642424242E70000000000000000003CE9
:1046600042424242423C0000000000000000001BA9
:1046700026424242221E020700000000000000788D
:1046800044424242447840E00000000000000077CD
:104690004C040404041F0000000000000000007C23
:1046A00042023C40423E0000000000000008083E7C
:1046B000080808080830000000000000000000633F
:1046C0004242424262DC000000000000000000E7BD
:1046D000422424140808000000000000000000EB41
:1046E00049495555222200000000000000000076D4
:1046F00024181818246E000000000000000000E7D5
:104700004224241418080807000000000000007E5E
:1047100022100808447E000000C020202020201025
:10472000202020202020C000101010101010101089
:1047300010101010101010100006080808080810BB
:1047400008080808080806000C32C2000000000033
:104750000000000000000000A1F600007FFC7FFCCC
:104760007FFC7FFC7FFC7FFC7FFC7FFC7FFC7FFC71
:104770007FFC7FFC7FFC00000000D2BA404020207C
:1047800027FE09208920527C524416A82B982250DB
:10479000E220223022502288230E2204BEA70000ED
:1047A0000FF008100FF008100FF0081000007E7EC8
:1047B00042427E7E424242427E7E42420000C7FD2D
:1047C0000000F9FE090049044984494849287D1040
:1047D000051805283524C5440584290011FE00006C
:1047E000B6AF002000207E20002000FCFF24102413
:1047F0001024242422244F44FA4440840114020843
:104800000000CAB5010000803FFE280446880480ED
:104810000880068004807FFE008001400220041092
:1048200018186010D1E90000F840084048A04890EE
:10483000490E4BF07C00048406443548C5480410FA
:1048400017FE08000000A1AA000000000000000000
:10485000000000000000FFFE00000000000000005B
:104860000000000000000000BBF9082008207FFCC9
:1048700008200FE008200FE00820FFFE0820111894
:104880003FEEC10401007FFC0000D3DA00003FFCD2
:104890000100010001000100FFFE01000100010014
:1048A000010001000100090005000200C8C34040EA
:1048B0002040304020400040007CE040204020402C
:1048C0002040204020402840304027FE0000D3C533
:1048D000108018A01098209037FC6140A140214022
:1048E000214021402140224422442446283C2000EB
:1048F000D0E300F83F0001007FFE03C00D30310E11
:10490000C1041FF00220024004FC04040804102823
:104910002010B3C900A0009000803FFE20802080BE
:104920003E88228C2248225022202A604492410A4A
:1049300086060002CEAA008010800C8004847FFED0
:1049400001040104018401440224022404040844F3
:10495000102820100000CFB000003FFC0004080425
:1049600004040304011400640184060438041004E0
:104970000004002400140008B9DF200023F82248B6
:104980002FFE3248AA48ABF8A00023F8224822485C
:104990002248224820B023082C04A3AC00000000C9
:1049A0000000000000000000000000000000000007
:1049B000000030003000100020000000D7A80100E7
:1049C00001003FF802000200FFFE040008200FF083
:1049D0000020004002800100008000400000D7A2BB
:1049E00020801040104007FE804048404840104062
:1049F00013FC2040E0402040204020402FFE2000BB
:104A0000C1A601000100010001007FFC01040104B6
:104A1000010401040204020404040404080410282C
:104A20002010C1BF1FF010101FF010101FF0000069
:104A3000FFFE11101FF011101FF001001FF8010000
:104A4000FFFE0000B3C900A0009000803FFE208060
:104A500020803E88228C2248225022202A604492C4
:104A6000410A86060002BECD10200828FF2400243B
:104A700000207FFE425042507E5008502C502A9019
:104A80004A9289122A0E1000C3CE082008207EFE0A
:104A900008301C682AAECB240C2007F808100C2024
:104AA0003240018003000C007000CFEB100010FCBE
:104AB0001084FEFC388434FC5484508490FC000044
:104AC000010008842882281267F00000A3A10000DA
:104AD0000000000000001000100010001000100086
:104AE0001000100010001000000010000000CDFAAF
:104AF000000003FC7C404440444044407C4045FC72
:104B00004440444044407C400040004007FE0000D8
:104B1000B1A6020001007FFE400480083FF80100BA
:104B2000010001001FF801400120013001207FFE3B
:104B30000000B5E70100010001003FF8210821084D
:104B40003FF82108210821083FF82108010201024D
:104B500000FE0000D7D300003FF00020004000809E
:104B6000010001000104FFFE01000100010001003D
:104B7000010005000200BAEC10001000200425FE20
:104B80004420F820082010202020FC204020002075
:104B90001C20E02447FE0000C1FA0200024002206F
:104BA00002207FFE02800290029004A004C00880D0
:104BB000098012822082407E0000BFAA00007FFE92
:104BC0000420042004200420FFFE042004200420EC
:104BD000082008201020202040200000B7A202005A
:104BE0002240223022107FFE2400040007E00C2027
:104BF0000A200A20114020804160861C1808B0E578
:104C0000101C11E011001100FD0011FC3984354821
:104C100055485230921012301448108E1104000082
:104C2000CDE2082008200F20112011202130522829
:104C30008A240C22042208201020202040208020DA
:104C40000020CFDF10401850104C204823FC484073
:104C5000F84013FE20407C48003000221CD2E30ABA
:104C600000060002B2E2400227C2244284524552AA
:104C700055521552255225522552C55241024282A3
:104C80004242444A4804CAD4002040282024302408
:104C900027FE0020E02027E0212021102110210AFA
:104CA00029CA360620020000C4AE2120112017FEBA
:104CB000812043F8520813F8120823F82040E7FE39
:104CC000204020A02090210E2604C8BB0840085098
:104CD0001F48114833FE2A40646094A00890110ECA
:104CE0002604400028882444666642220004BA0054
:104CF000F00033333333377777777777775333353C
:104D000057777777777777777778ACDDDDDDDDDD1F
:104D1000DD23337777733323333333333677777742
:104D20007777777777777AAAAAADDDDDDDDDDDDD10
:104D3000DDDDDDDFFFFFFFFFFFFFFFFFFFEDDDDD5F
:104D4000877777BDD7743777532000000000013391
:104D500033333337777777777777533333377777DB
:104D6000777777777777778DDDDDDDDDDDDD6233B2
:104D700077777333033333333333777777777777D3
:104D80007777777AAAAAADDDDDDDDDDDDDDDDDDD7E
:104D9000DDFFFFFFFFFFFFFFFFFFEDDDDD97777713
:104DA0007DD7733577532000000000013333333350
:104DB00037777777777777533333377777777777AF
:104DC000777777777ADDDDDDDDDDDDB33377777318
:104DD000330333333333337777777777777777776F
:104DE00079AAAAADDDDDDDDDDDDDDDDDDDDDDFFFC9
:104DF000FFFFFFFFFFFFFFEDDDDDB777777DD774A6
:104E000035775320000000000331133333377777B1
:104E100077777777533333357777777777771111DC
:104E200077711CDDDDDDDDDDD533771173330333C1
:104E3000333333337777777777777777777AAAAAA9
:104E4000ABB9BBDDDDDDDFFFFFFFFDDDDDFFDFFF3C
:104E5000FFFFFFFFEDDDDDC777777DD77433775335
:104E60003000000000033188333337777777777766
:104E7000773333333377777777777118888771880B
:104E8000DDDDDDDDDDD933771883330033333333B4
:104E9000337777777777777777777AAA7778AAAD46
:104EA000ADDDDDDDFFFFFFFFDDDDDDDDFFFFFFFF52
:104EB000FFEDDDDDD777777DD87433777331000070
:104EC000000003318FF33337777777777777333392
:104ED000333367777777777188FFFF718FFABDDD9E
:104EE000DDDDDD337718FF3300333333333367775A
:104EF0007777777777777777777779AABDDDDDDD95
:104F0000DDFFFFFFFFFFFEDDDDDDDFFFFFEFEDDD9E
:104F1000DDD777777DDD74335773330000000033BE
:104F2000318FF111111111777711113333111117DD
:104F300077111177778FF18FF18FFAACDD1111DDD9
:104F4000711118FF33003333333333477777777773
:104F5000777777777777779ACDDDFFFFFFFFFFFFD2
:104F6000FFFFFFFFDDDDDDDDFFFFFFEDDDDDD777DF
:104F7000777DDD74333773333000000033318FF1C8
:104F8000888888888771188883311888887118887C
:104F900087777FF18FF18FFACDD118888D118888AE
:104FA000FF33003333333333477777777777777748
:104FB00077777788BDDDFFFFFFFFFFFFFFFFFFFF74
:104FC000FFEDDDDDDDEFFFFDEDDDDDD977777CDDAC
:104FD00074333774333330000333318FF18FFFFF75
:104FE000FFFF7788FFFF3188FFFFF188FFFF7771B0
:104FF000188FF18FF9AAD188FFFF188FFFFF3200B9
:1050000033333333333777777777777777777779C2
:105010009ADDFFFEDDDDDDDDEFFFDDEEDFFFFDDD37
:10502000DDDDDFFFEFDDDDDDDC77777BDD76333760
:1050300077333333333333318FF18FF18FF18FF790
:105040001FF88FF18FF18FF18FF88FF71188FF71B3
:105050008FFAAAD18FFDDFF8FF18FF320013333328
:1050600033333777777777777777777777ADDEDD95
:10507000AAA88878ADDDDDDDDFDFFFFDDDFDDDDD4C
:10508000DFFDEDDDDDDD777779DD773337773333BE
:1050900033333333318FF18FF18FF18FF1188FFF6D
:1050A000F18FF18FF18FFFFFF1188FF7718FF9A951
:1050B000A18FFDDD18FF18FF320033333333333750
:1050C0007777777777777777778CDDC977777777A3
:1050D000777ADDDDDDDFFFFFFFDDDFDDDDDDDDDD5F
:1050E000DDDDDD777779DD77333477333333333391
:1050F00033318FF18FF18FF18FF188FF8FF18FF1C5
:105100008FF18FF1177188FF77718FF8AA818FF176
:105110001D18FF18FF3000033333333334777777AC
:10512000777777777779CDB8757777777777778B64
:10513000BDDDDFFFFFFFDDDFFDDDDDDDDDDDDDDD35
:10514000777779DD77333477333333333333318FD4
:10515000F18FF18FF18FF78FF18FF38FF18FF78F41
:10516000F188718FF117718FF111798FF188D8FF64
:1051700018FF30000333333333337777777777771C
:1051800077779DC87333333377777777779DDDDF14
:10519000FFFFFFFDDDFFDDDDDDDDDDDDDD977778A8
:1051A000DD77333377333333333333338FF38FF365
:1051B0008FF78FF77FF88FF33FF88FF77FF88FF730
:1051C0008FF888778FF888879FF88FFDFF88FF30EA
:1051D000000333333333337777777777777779DC37
:1051E000763333333367777777777ADDDFFFFFFF07
:1051F000FDDFFFDDDDDDDDDDDDDDA77778DD7733AC
:105200003477633333333333333FF33FF37FF77F05
:10521000F777FFFFF113FFFFF777FFFF777FFFFFC0
:10522000F77FFFFFFF7AFFFFDDDFFFFF3000033373
:1052300033333334477777777777779C94333333C7
:10524000333347777777777ADDDFFFFFFFFEDFFFC6
:10525000EDDDDDDDDDDDDDA77778DD773333776309
:105260003333333333333333333377777777777776
:10527000433388118FF777777777777777777777F3
:10528000777778ADDDDDDC7763300003333333339C
:105290003367777777777778C7333333333333357B
:1052A000777777779ADDDFFFFFFFFEDDFFFDDDDD3E
:1052B000DDDDDDDDC77777DD977333677333333338
:1052C0003333333333333377777777777753333FEA
:1052D000F88FF77777777777777777777777777646
:1052E0008BDDDDDD976330000033333333333777C5
:1052F000777777778A633333333333333577777719
:10530000789ADDDEDFFFFFFFFDFFFEDDDDDDDDDDA9
:10531000DDD87777CDB773336773333333333333B4
:1053200033333333777777777777533033FFFF77BC
:105330007777777777777777777777777468ADDD73
:10534000DDD77330000033333333333777777777F4
:1053500077A8733333333333333377777778AABD12
:10536000DEDFFFFFFFFDFFFEDDDDDDDDDDDDDB7709
:1053700077BDB77333477333333333333333333317
:105380003377777777777753203333337777777738
:1053900036777777777777777533378ADDDDD87328
:1053A0003000003333333333377777777777667668
:1053B0003333333333333477777778AAADDDDFFF98
:1053C000FFFFFFFFFFDDDDDDDDDDDDDD8777BDC755
:1053D000733337753333333333333333333377778F
:1053E00077777777532333333377777777357777D3
:1053F000777777777776335369BDDDDD63300000EB
:1054000033333333333777777777743357533333D3
:105410003333333577777778AABDDDDFFFFFFFFFC2
:10542000FFFFDDDDDDDDDDDDDDD898CDD773333782
:1054300075333333333333333333337777777777A6
:1054400077532001333377777774337777777777AC
:10545000777775333334AADDDD63300000333333BF
:105460003333347777777753333573333333333399
:105470003577777778AABDDDDEFFFFFFFFFFFFFD01
:10548000DDDDDDDDDDDDDDDDDDD7733337773333C6
:105490003333333333333333577777777777532354
:1054A00010333377777774337777777777777776C3
:1054B0003333337ADDDDB330000023333333453506
:1054C0007777777733333333333333333337777710
:1054D0007777AABDDDDEFFFFFFFFEFFFFDDDDDDD3E
:1054E000DDDDDDDDDDDDD774333777333333333363
:1054F00033333333335777777777775333333333E4
:10550000777777733377777777777777773333333F
:1055100077BDDDD4300000033333337744777777BA
:10552000776576333333333333334777777777AAF7
:10553000BDDDDEFFFFFFFEDFFFFEDDDDDDDDDDDDEE
:10554000DDDDDDD7763337773333333333333333FE
:1055500033335777777777775333303333777777BA
:1055600073334777777777777775333333777DDDA5
:10557000D9300000333553367747777777CDFF97AB
:105580007633333333333377777777779ABDDDDE0E
:10559000FFFFFFFFDFFFDEDFEDDDDDDDDDDDDDDD7C
:1055A000D877333777733333333333333333337716
:1055B0007777777777533303333377777773334757
:1055C000777777777777753333336778CDDC311337
:1055D0003333779338C7437777779C739E9733330A
:1055E0003333333377777777779ABDDDDDFFFFFF8E
:1055F000FDDFFFFEDDEDDDDDDDDDDDDDDDD877337B
:1056000037777333333333333333333357777777F2
:1056100077775333303333777777533337777777F9
:10562000777777763333334778BDDD6777336777BE
:10563000733BC6336777774757DFD73333333467E6
:105640007677777777779ABDDDDDFFFFFFFFDFEFB6
:10565000FEDDEDDDDDDDDDDDDDDDD97743377773C3
:105660003333333333333333335777777777775372
:105670003333333377777753344777777777777761
:10568000763334488DDDDBDDD777777777775773DF
:10569000333777333478FFF7334777777777877700
:1056A0007777779ABDDDDDFFFFFFFFDFEFFFDFEDEF
:1056B000DDDDDDDDDDDDDDD9774333777333333396
:1056C0003333333333335777777777775333323313
:1056D0003367777774377777777777777777577711
:1056E0007BDDDDDDBDD977777777433633333763BD
:1056F000333367BEC53577777777779A877777774C
:105700007ABDDDDDDFFFFFFEDDEFFEDFDFDDDDDDAE
:10571000DDDDDDDDD9774333777333333333333333
:105720003333335777777777775333333333777729
:1057300077775777777777777777777777AADDDD1A
:10574000DDDADD8777784333333333373733333735
:10575000774377777777777779C97777777AADDD1A
:10576000DDDFFFFFFDDDEFFDDFDFDDDDDDDDDDDDCD
:10577000DDDB77733377763333333333333333339C
:105780005777777777775333323333777777745721
:1057900077777777777777777A8AACDDDDDDDDDD50
:1057A000C773333333333333337776433333477706
:1057B0007777773333479D9777777AADDDDDDFFFF6
:1057C000FFFDDDEFFDDFEFDDDDDDDDDDDDDDDB77E9
:1057D0007333777633333333333333333357777726
:1057E000777777633333333377777777477777779D
:1057F000777777777797A7ADDDDDDDDDA553334785
:105800007777777743377777733337777777777625
:1058100033454479DB77777AADDDDDDFFFFFFEDDF1
:10582000EFFDDFEFDDDDDDDDDDDDDDDD7773335762
:10583000773333333333233333335577777777778E
:105840007333323333777777773477777777777740
:10585000777777778ABDDDDDDA37733777777777D4
:105860007773677777773347777777777747777780
:10587000779D97777AADDDDDDFFFFFFDDDEFFDDFA3
:10588000FDDDDDDDDDDDDDDDDD77733357763333E3
:105890003333332333333344677777777773330383
:1058A00037777777777777777777777777777777C8
:1058B000788ADDDDDDD9D997777788777777736751
:1058C000777773357777777779BBC97777777BC8C1
:1058D000777ABCDDDDDFFFFFFDDDEFFDDFFDFDDD08
:1058E000DDDDDDDDDDDD77733337773333333333C0
:1058F0003333333336377777777773232567779B5F
:105900007777777777777777777777777778A8ADBF
:10591000DDDDDC9D95334558ACB87774773376334D
:1059200077777777778DA759DAB77777CA777AACB1
:10593000DDDDDFFFFFFFDDEFFDDFFDFDDDDDDDDDBB
:10594000DDBADD7773333777333333333333333380
:1059500033377737777777733337777DDD777777B7
:105960007777777777777777777777AAABDDDDD734
:105970007733337777777BD73474333337777777E9
:10598000777779D637EFD977777A777ABCDDDDDF2D
:10599000FFFFFFDDEFFDDDFDDDDDDDDDDDDDDADD82
:1059A00077733336773333333333133333333767E4
:1059B00077777777734777778DDC77777777777730
:1059C0007777777777777777AAABDDDDB778433767
:1059D0007777777776367433333777777777777764
:1059E0007947EFFD877777779ABDDDDDDDFFFFFD36
:1059F000DDEFFEDDFDDDDDDDDDDDDCDADD77733302
:105A00003377433333333013333333337775777727
:105A10007777777777BDD97777777777777777776E
:105A20007777777777788ADDDDC7A83377777777E9
:105A3000777777633333377777777777777797FF2A
:105A4000FEC77777779AADDDDDDDFFFFFDDDEFFD8A
:105A5000DDFDDDDDDDDDDDDAAADD777333337743B0
:105A60003333333030333333337534777777777775
:105A70007777BDD97777777777777777777777770E
:105A80007777778BDDDDDA85777777778877777744
:105A900054473377777777777777777ADFFFD777DA
:105AA0007777AACDDDDDDDFFDFFDDDEFFEDDFDDD9E
:105AB000DDDDDDDDDAAABD7773333377433333338E
:105AC000330033333337374777777777777777CD47
:105AD000D9777777777777777777777777777777F4
